{
  "_format": "hh-sol-artifact-1",
  "contractName": "AITUToken",
  "sourceName": "contracts/AITUToken.sol",
  "abi": [
    {
      "inputs": [],
      "stateMutability": "nonpayable",
      "type": "constructor"
    },
    {
      "inputs": [
        {
          "internalType": "address",
          "name": "spender",
          "type": "address"
        },
        {
          "internalType": "uint256",
          "name": "allowance",
          "type": "uint256"
        },
        {
          "internalType": "uint256",
          "name": "needed",
          "type": "uint256"
        }
      ],
      "name": "ERC20InsufficientAllowance",
      "type": "error"
    },
    {
      "inputs": [
        {
          "internalType": "address",
          "name": "sender",
          "type": "address"
        },
        {
          "internalType": "uint256",
          "name": "balance",
          "type": "uint256"
        },
        {
          "internalType": "uint256",
          "name": "needed",
          "type": "uint256"
        }
      ],
      "name": "ERC20InsufficientBalance",
      "type": "error"
    },
    {
      "inputs": [
        {
          "internalType": "address",
          "name": "approver",
          "type": "address"
        }
      ],
      "name": "ERC20InvalidApprover",
      "type": "error"
    },
    {
      "inputs": [
        {
          "internalType": "address",
          "name": "receiver",
          "type": "address"
        }
      ],
      "name": "ERC20InvalidReceiver",
      "type": "error"
    },
    {
      "inputs": [
        {
          "internalType": "address",
          "name": "sender",
          "type": "address"
        }
      ],
      "name": "ERC20InvalidSender",
      "type": "error"
    },
    {
      "inputs": [
        {
          "internalType": "address",
          "name": "spender",
          "type": "address"
        }
      ],
      "name": "ERC20InvalidSpender",
      "type": "error"
    },
    {
      "anonymous": false,
      "inputs": [
        {
          "indexed": true,
          "internalType": "address",
          "name": "owner",
          "type": "address"
        },
        {
          "indexed": true,
          "internalType": "address",
          "name": "spender",
          "type": "address"
        },
        {
          "indexed": false,
          "internalType": "uint256",
          "name": "value",
          "type": "uint256"
        }
      ],
      "name": "Approval",
      "type": "event"
    },
    {
      "anonymous": false,
      "inputs": [
        {
          "indexed": true,
          "internalType": "address",
          "name": "from",
          "type": "address"
        },
        {
          "indexed": true,
          "internalType": "address",
          "name": "to",
          "type": "address"
        },
        {
          "indexed": false,
          "internalType": "uint256",
          "name": "value",
          "type": "uint256"
        }
      ],
      "name": "Transfer",
      "type": "event"
    },
    {
      "inputs": [
        {
          "internalType": "address",
          "name": "owner",
          "type": "address"
        },
        {
          "internalType": "address",
          "name": "spender",
          "type": "address"
        }
      ],
      "name": "allowance",
      "outputs": [
        {
          "internalType": "uint256",
          "name": "",
          "type": "uint256"
        }
      ],
      "stateMutability": "view",
      "type": "function"
    },
    {
      "inputs": [
        {
          "internalType": "address",
          "name": "spender",
          "type": "address"
        },
        {
          "internalType": "uint256",
          "name": "value",
          "type": "uint256"
        }
      ],
      "name": "approve",
      "outputs": [
        {
          "internalType": "bool",
          "name": "",
          "type": "bool"
        }
      ],
      "stateMutability": "nonpayable",
      "type": "function"
    },
    {
      "inputs": [
        {
          "internalType": "address",
          "name": "account",
          "type": "address"
        }
      ],
      "name": "balanceOf",
      "outputs": [
        {
          "internalType": "uint256",
          "name": "",
          "type": "uint256"
        }
      ],
      "stateMutability": "view",
      "type": "function"
    },
    {
      "inputs": [],
      "name": "decimals",
      "outputs": [
        {
          "internalType": "uint8",
          "name": "",
          "type": "uint8"
        }
      ],
      "stateMutability": "view",
      "type": "function"
    },
    {
      "inputs": [],
      "name": "getLatestTransactionReceiver",
      "outputs": [
        {
          "internalType": "address",
          "name": "",
          "type": "address"
        }
      ],
      "stateMutability": "view",
      "type": "function"
    },
    {
      "inputs": [],
      "name": "getLatestTransactionSender",
      "outputs": [
        {
          "internalType": "address",
          "name": "",
          "type": "address"
        }
      ],
      "stateMutability": "view",
      "type": "function"
    },
    {
      "inputs": [],
      "name": "getLatestTransactionTimestamp",
      "outputs": [
        {
          "internalType": "uint256",
          "name": "",
          "type": "uint256"
        }
      ],
      "stateMutability": "view",
      "type": "function"
    },
    {
      "inputs": [],
      "name": "name",
      "outputs": [
        {
          "internalType": "string",
          "name": "",
          "type": "string"
        }
      ],
      "stateMutability": "view",
      "type": "function"
    },
    {
      "inputs": [],
      "name": "symbol",
      "outputs": [
        {
          "internalType": "string",
          "name": "",
          "type": "string"
        }
      ],
      "stateMutability": "view",
      "type": "function"
    },
    {
      "inputs": [],
      "name": "totalSupply",
      "outputs": [
        {
          "internalType": "uint256",
          "name": "",
          "type": "uint256"
        }
      ],
      "stateMutability": "view",
      "type": "function"
    },
    {
      "inputs": [
        {
          "internalType": "uint256",
          "name": "",
          "type": "uint256"
        }
      ],
      "name": "transactions",
      "outputs": [
        {
          "internalType": "address",
          "name": "sender",
          "type": "address"
        },
        {
          "internalType": "address",
          "name": "receiver",
          "type": "address"
        },
        {
          "internalType": "uint256",
          "name": "amount",
          "type": "uint256"
        },
        {
          "internalType": "uint256",
          "name": "timestamp",
          "type": "uint256"
        }
      ],
      "stateMutability": "view",
      "type": "function"
    },
    {
      "inputs": [
        {
          "internalType": "address",
          "name": "to",
          "type": "address"
        },
        {
          "internalType": "uint256",
          "name": "amount",
          "type": "uint256"
        }
      ],
      "name": "transfer",
      "outputs": [
        {
          "internalType": "bool",
          "name": "",
          "type": "bool"
        }
      ],
      "stateMutability": "nonpayable",
      "type": "function"
    },
    {
      "inputs": [
        {
          "internalType": "address",
          "name": "from",
          "type": "address"
        },
        {
          "internalType": "address",
          "name": "to",
          "type": "address"
        },
        {
          "internalType": "uint256",
          "name": "amount",
          "type": "uint256"
        }
      ],
      "name": "transferFrom",
      "outputs": [
        {
          "internalType": "bool",
          "name": "",
          "type": "bool"
        }
      ],
      "stateMutability": "nonpayable",
      "type": "function"
    }
  ],
  "bytecode": "0x608060405234801561001057600080fd5b506040518060400160405280601081526020017f41495455546f6b656e5f534532333134000000000000000000000000000000008152506040518060400160405280600481526020017f4149545500000000000000000000000000000000000000000000000000000000815250816003908161008c91906105e0565b50806004908161009c91906105e0565b5050506100d5336100b16100da60201b60201c565b600a6100bd9190610821565b6107d06100ca919061086c565b6100e360201b60201c565b61099f565b60006012905090565b600073ffffffffffffffffffffffffffffffffffffffff168273ffffffffffffffffffffffffffffffffffffffff16036101555760006040517fec442f0500000000000000000000000000000000000000000000000000000000815260040161014c91906108ef565b60405180910390fd5b6101676000838361016b60201b60201c565b5050565b600073ffffffffffffffffffffffffffffffffffffffff168373ffffffffffffffffffffffffffffffffffffffff16036101bd5780600260008282546101b1919061090a565b92505081905550610290565b60008060008573ffffffffffffffffffffffffffffffffffffffff1673ffffffffffffffffffffffffffffffffffffffff16815260200190815260200160002054905081811015610249578381836040517fe450d38c0000000000000000000000000000000000000000000000000000000081526004016102409392919061094d565b60405180910390fd5b8181036000808673ffffffffffffffffffffffffffffffffffffffff1673ffffffffffffffffffffffffffffffffffffffff16815260200190815260200160002081905550505b600073ffffffffffffffffffffffffffffffffffffffff168273ffffffffffffffffffffffffffffffffffffffff16036102d95780600260008282540392505081905550610326565b806000808473ffffffffffffffffffffffffffffffffffffffff1673ffffffffffffffffffffffffffffffffffffffff168152602001908152602001600020600082825401925050819055505b8173ffffffffffffffffffffffffffffffffffffffff168373ffffffffffffffffffffffffffffffffffffffff167fddf252ad1be2c89b69c2b068fc378daa952ba7f163c4a11628f55a4df523b3ef836040516103839190610984565b60405180910390a3505050565b600081519050919050565b7f4e487b7100000000000000000000000000000000000000000000000000000000600052604160045260246000fd5b7f4e487b7100000000000000000000000000000000000000000000000000000000600052602260045260246000fd5b6000600282049050600182168061041157607f821691505b602082108103610424576104236103ca565b5b50919050565b60008190508160005260206000209050919050565b60006020601f8301049050919050565b600082821b905092915050565b60006008830261048c7fffffffffffffffffffffffffffffffffffffffffffffffffffffffffffffffff8261044f565b610496868361044f565b95508019841693508086168417925050509392505050565b6000819050919050565b6000819050919050565b60006104dd6104d86104d3846104ae565b6104b8565b6104ae565b9050919050565b6000819050919050565b6104f7836104c2565b61050b610503826104e4565b84845461045c565b825550505050565b600090565b610520610513565b61052b8184846104ee565b505050565b5b8181101561054f57610544600082610518565b600181019050610531565b5050565b601f821115610594576105658161042a565b61056e8461043f565b8101602085101561057d578190505b6105916105898561043f565b830182610530565b50505b505050565b600082821c905092915050565b60006105b760001984600802610599565b1980831691505092915050565b60006105d083836105a6565b9150826002028217905092915050565b6105e982610390565b67ffffffffffffffff8111156106025761060161039b565b5b61060c82546103f9565b610617828285610553565b600060209050601f83116001811461064a5760008415610638578287015190505b61064285826105c4565b8655506106aa565b601f1984166106588661042a565b60005b828110156106805784890151825560018201915060208501945060208101905061065b565b8683101561069d5784890151610699601f8916826105a6565b8355505b6001600288020188555050505b505050505050565b7f4e487b7100000000000000000000000000000000000000000000000000000000600052601160045260246000fd5b60008160011c9050919050565b6000808291508390505b600185111561073857808604811115610714576107136106b2565b5b60018516156107235780820291505b8081029050610731856106e1565b94506106f8565b94509492505050565b600082610751576001905061080d565b8161075f576000905061080d565b8160018114610775576002811461077f576107ae565b600191505061080d565b60ff841115610791576107906106b2565b5b8360020a9150848211156107a8576107a76106b2565b5b5061080d565b5060208310610133831016604e8410600b84101617156107e35782820a9050838111156107de576107dd6106b2565b5b61080d565b6107f084848460016106ee565b92509050818404811115610807576108066106b2565b5b81810290505b9392505050565b600060ff82169050919050565b600061082c826104ae565b915061083783610814565b92506108647fffffffffffffffffffffffffffffffffffffffffffffffffffffffffffffffff8484610741565b905092915050565b6000610877826104ae565b9150610882836104ae565b9250828202610890816104ae565b915082820484148315176108a7576108a66106b2565b5b5092915050565b600073ffffffffffffffffffffffffffffffffffffffff82169050919050565b60006108d9826108ae565b9050919050565b6108e9816108ce565b82525050565b600060208201905061090460008301846108e0565b92915050565b6000610915826104ae565b9150610920836104ae565b9250828201905080821115610938576109376106b2565b5b92915050565b610947816104ae565b82525050565b600060608201905061096260008301866108e0565b61096f602083018561093e565b61097c604083018461093e565b949350505050565b6000602082019050610999600083018461093e565b92915050565b611410806109ae6000396000f3fe608060405234801561001057600080fd5b50600436106100cf5760003560e01c806370a082311161008c5780639ace38c2116100665780639ace38c214610218578063a9059cbb1461024b578063d45e3f4a1461027b578063dd62ed3e14610299576100cf565b806370a08231146101ac57806395649bc9146101dc57806395d89b41146101fa576100cf565b806306fdde03146100d4578063095ea7b3146100f25780630ba70d091461012257806318160ddd1461014057806323b872dd1461015e578063313ce5671461018e575b600080fd5b6100dc6102c9565b6040516100e99190610f23565b60405180910390f35b61010c60048036038101906101079190610fde565b61035b565b6040516101199190611039565b60405180910390f35b61012a61037e565b6040516101379190611063565b60405180910390f35b610148610423565b604051610155919061108d565b60405180910390f35b610178600480360381019061017391906110a8565b61042d565b6040516101859190611039565b60405180910390f35b61019661044e565b6040516101a39190611117565b60405180910390f35b6101c660048036038101906101c19190611132565b610457565b6040516101d3919061108d565b60405180910390f35b6101e461049f565b6040516101f19190611063565b60405180910390f35b610202610544565b60405161020f9190610f23565b60405180910390f35b610232600480360381019061022d919061115f565b6105d6565b604051610242949392919061118c565b60405180910390f35b61026560048036038101906102609190610fde565b610656565b6040516102729190611039565b60405180910390f35b610283610675565b604051610290919061108d565b60405180910390f35b6102b360048036038101906102ae91906111d1565b6106fa565b6040516102c0919061108d565b60405180910390f35b6060600380546102d890611240565b80601f016020809104026020016040519081016040528092919081815260200182805461030490611240565b80156103515780601f1061032657610100808354040283529160200191610351565b820191906000526020600020905b81548152906001019060200180831161033457829003601f168201915b5050505050905090565b600080610366610781565b9050610373818585610789565b600191505092915050565b600080600580549050116103c7576040517f08c379a00000000000000000000000000000000000000000000000000000000081526004016103be906112bd565b60405180910390fd5b600560016005805490506103db919061130c565b815481106103ec576103eb611340565b5b906000526020600020906004020160000160009054906101000a900473ffffffffffffffffffffffffffffffffffffffff16905090565b6000600254905090565b600061043a84848461079b565b6104458484846108bc565b90509392505050565b60006012905090565b60008060008373ffffffffffffffffffffffffffffffffffffffff1673ffffffffffffffffffffffffffffffffffffffff168152602001908152602001600020549050919050565b600080600580549050116104e8576040517f08c379a00000000000000000000000000000000000000000000000000000000081526004016104df906112bd565b60405180910390fd5b600560016005805490506104fc919061130c565b8154811061050d5761050c611340565b5b906000526020600020906004020160010160009054906101000a900473ffffffffffffffffffffffffffffffffffffffff16905090565b60606004805461055390611240565b80601f016020809104026020016040519081016040528092919081815260200182805461057f90611240565b80156105cc5780601f106105a1576101008083540402835291602001916105cc565b820191906000526020600020905b8154815290600101906020018083116105af57829003601f168201915b5050505050905090565b600581815481106105e657600080fd5b90600052602060002090600402016000915090508060000160009054906101000a900473ffffffffffffffffffffffffffffffffffffffff16908060010160009054906101000a900473ffffffffffffffffffffffffffffffffffffffff16908060020154908060030154905084565b600061066333848461079b565b61066d83836108eb565b905092915050565b600080600580549050116106be576040517f08c379a00000000000000000000000000000000000000000000000000000000081526004016106b5906112bd565b60405180910390fd5b600560016005805490506106d2919061130c565b815481106106e3576106e2611340565b5b906000526020600020906004020160030154905090565b6000600160008473ffffffffffffffffffffffffffffffffffffffff1673ffffffffffffffffffffffffffffffffffffffff16815260200190815260200160002060008373ffffffffffffffffffffffffffffffffffffffff1673ffffffffffffffffffffffffffffffffffffffff16815260200190815260200160002054905092915050565b600033905090565b610796838383600161090e565b505050565b600560405180608001604052808573ffffffffffffffffffffffffffffffffffffffff1681526020018473ffffffffffffffffffffffffffffffffffffffff16815260200183815260200142815250908060018154018082558091505060019003906000526020600020906004020160009091909190915060008201518160000160006101000a81548173ffffffffffffffffffffffffffffffffffffffff021916908373ffffffffffffffffffffffffffffffffffffffff16021790555060208201518160010160006101000a81548173ffffffffffffffffffffffffffffffffffffffff021916908373ffffffffffffffffffffffffffffffffffffffff16021790555060408201518160020155606082015181600301555050505050565b6000806108c7610781565b90506108d4858285610ae5565b6108df858585610b7a565b60019150509392505050565b6000806108f6610781565b9050610903818585610b7a565b600191505092915050565b600073ffffffffffffffffffffffffffffffffffffffff168473ffffffffffffffffffffffffffffffffffffffff16036109805760006040517fe602df050000000000000000000000000000000000000000000000000000000081526004016109779190611063565b60405180910390fd5b600073ffffffffffffffffffffffffffffffffffffffff168373ffffffffffffffffffffffffffffffffffffffff16036109f25760006040517f94280d620000000000000000000000000000000000000000000000000000000081526004016109e99190611063565b60405180910390fd5b81600160008673ffffffffffffffffffffffffffffffffffffffff1673ffffffffffffffffffffffffffffffffffffffff16815260200190815260200160002060008573ffffffffffffffffffffffffffffffffffffffff1673ffffffffffffffffffffffffffffffffffffffff168152602001908152602001600020819055508015610adf578273ffffffffffffffffffffffffffffffffffffffff168473ffffffffffffffffffffffffffffffffffffffff167f8c5be1e5ebec7d5bd14f71427d1e84f3dd0314c0f7b2291e5b200ac8c7c3b92584604051610ad6919061108d565b60405180910390a35b50505050565b6000610af184846106fa565b90507fffffffffffffffffffffffffffffffffffffffffffffffffffffffffffffffff811015610b745781811015610b64578281836040517ffb8f41b2000000000000000000000000000000000000000000000000000000008152600401610b5b9392919061136f565b60405180910390fd5b610b738484848403600061090e565b5b50505050565b600073ffffffffffffffffffffffffffffffffffffffff168373ffffffffffffffffffffffffffffffffffffffff1603610bec5760006040517f96c6fd1e000000000000000000000000000000000000000000000000000000008152600401610be39190611063565b60405180910390fd5b600073ffffffffffffffffffffffffffffffffffffffff168273ffffffffffffffffffffffffffffffffffffffff1603610c5e5760006040517fec442f05000000000000000000000000000000000000000000000000000000008152600401610c559190611063565b60405180910390fd5b610c69838383610c6e565b505050565b600073ffffffffffffffffffffffffffffffffffffffff168373ffffffffffffffffffffffffffffffffffffffff1603610cc0578060026000828254610cb491906113a6565b92505081905550610d93565b60008060008573ffffffffffffffffffffffffffffffffffffffff1673ffffffffffffffffffffffffffffffffffffffff16815260200190815260200160002054905081811015610d4c578381836040517fe450d38c000000000000000000000000000000000000000000000000000000008152600401610d439392919061136f565b60405180910390fd5b8181036000808673ffffffffffffffffffffffffffffffffffffffff1673ffffffffffffffffffffffffffffffffffffffff16815260200190815260200160002081905550505b600073ffffffffffffffffffffffffffffffffffffffff168273ffffffffffffffffffffffffffffffffffffffff1603610ddc5780600260008282540392505081905550610e29565b806000808473ffffffffffffffffffffffffffffffffffffffff1673ffffffffffffffffffffffffffffffffffffffff168152602001908152602001600020600082825401925050819055505b8173ffffffffffffffffffffffffffffffffffffffff168373ffffffffffffffffffffffffffffffffffffffff167fddf252ad1be2c89b69c2b068fc378daa952ba7f163c4a11628f55a4df523b3ef83604051610e86919061108d565b60405180910390a3505050565b600081519050919050565b600082825260208201905092915050565b60005b83811015610ecd578082015181840152602081019050610eb2565b60008484015250505050565b6000601f19601f8301169050919050565b6000610ef582610e93565b610eff8185610e9e565b9350610f0f818560208601610eaf565b610f1881610ed9565b840191505092915050565b60006020820190508181036000830152610f3d8184610eea565b905092915050565b600080fd5b600073ffffffffffffffffffffffffffffffffffffffff82169050919050565b6000610f7582610f4a565b9050919050565b610f8581610f6a565b8114610f9057600080fd5b50565b600081359050610fa281610f7c565b92915050565b6000819050919050565b610fbb81610fa8565b8114610fc657600080fd5b50565b600081359050610fd881610fb2565b92915050565b60008060408385031215610ff557610ff4610f45565b5b600061100385828601610f93565b925050602061101485828601610fc9565b9150509250929050565b60008115159050919050565b6110338161101e565b82525050565b600060208201905061104e600083018461102a565b92915050565b61105d81610f6a565b82525050565b60006020820190506110786000830184611054565b92915050565b61108781610fa8565b82525050565b60006020820190506110a2600083018461107e565b92915050565b6000806000606084860312156110c1576110c0610f45565b5b60006110cf86828701610f93565b93505060206110e086828701610f93565b92505060406110f186828701610fc9565b9150509250925092565b600060ff82169050919050565b611111816110fb565b82525050565b600060208201905061112c6000830184611108565b92915050565b60006020828403121561114857611147610f45565b5b600061115684828501610f93565b91505092915050565b60006020828403121561117557611174610f45565b5b600061118384828501610fc9565b91505092915050565b60006080820190506111a16000830187611054565b6111ae6020830186611054565b6111bb604083018561107e565b6111c8606083018461107e565b95945050505050565b600080604083850312156111e8576111e7610f45565b5b60006111f685828601610f93565b925050602061120785828601610f93565b9150509250929050565b7f4e487b7100000000000000000000000000000000000000000000000000000000600052602260045260246000fd5b6000600282049050600182168061125857607f821691505b60208210810361126b5761126a611211565b5b50919050565b7f4e6f207472616e73616374696f6e73207965742e000000000000000000000000600082015250565b60006112a7601483610e9e565b91506112b282611271565b602082019050919050565b600060208201905081810360008301526112d68161129a565b9050919050565b7f4e487b7100000000000000000000000000000000000000000000000000000000600052601160045260246000fd5b600061131782610fa8565b915061132283610fa8565b925082820390508181111561133a576113396112dd565b5b92915050565b7f4e487b7100000000000000000000000000000000000000000000000000000000600052603260045260246000fd5b60006060820190506113846000830186611054565b611391602083018561107e565b61139e604083018461107e565b949350505050565b60006113b182610fa8565b91506113bc83610fa8565b92508282019050808211156113d4576113d36112dd565b5b9291505056fea2646970667358221220e4b1909558fc35b664b3d3dca9424758f5c0bab47f3f481ef11e1be8d11e88e164736f6c634300081c0033",
  "linkReferences": {},
  "deployedLinkReferences": {}
}