{
  "_format": "hh-sol-artifact-1",
  "contractName": "AITUTokenNew",
  "sourceName": "contracts/AITUTokenNew.sol",
  "abi": [
    {
      "inputs": [
        {
          "internalType": "uint256",
          "name": "initialSupply",
          "type": "uint256"
        }
      ],
      "stateMutability": "nonpayable",
      "type": "constructor"
    },
    {
      "inputs": [
        {
          "internalType": "address",
          "name": "spender",
          "type": "address"
        },
        {
          "internalType": "uint256",
          "name": "allowance",
          "type": "uint256"
        },
        {
          "internalType": "uint256",
          "name": "needed",
          "type": "uint256"
        }
      ],
      "name": "ERC20InsufficientAllowance",
      "type": "error"
    },
    {
      "inputs": [
        {
          "internalType": "address",
          "name": "sender",
          "type": "address"
        },
        {
          "internalType": "uint256",
          "name": "balance",
          "type": "uint256"
        },
        {
          "internalType": "uint256",
          "name": "needed",
          "type": "uint256"
        }
      ],
      "name": "ERC20InsufficientBalance",
      "type": "error"
    },
    {
      "inputs": [
        {
          "internalType": "address",
          "name": "approver",
          "type": "address"
        }
      ],
      "name": "ERC20InvalidApprover",
      "type": "error"
    },
    {
      "inputs": [
        {
          "internalType": "address",
          "name": "receiver",
          "type": "address"
        }
      ],
      "name": "ERC20InvalidReceiver",
      "type": "error"
    },
    {
      "inputs": [
        {
          "internalType": "address",
          "name": "sender",
          "type": "address"
        }
      ],
      "name": "ERC20InvalidSender",
      "type": "error"
    },
    {
      "inputs": [
        {
          "internalType": "address",
          "name": "spender",
          "type": "address"
        }
      ],
      "name": "ERC20InvalidSpender",
      "type": "error"
    },
    {
      "anonymous": false,
      "inputs": [
        {
          "indexed": true,
          "internalType": "address",
          "name": "owner",
          "type": "address"
        },
        {
          "indexed": true,
          "internalType": "address",
          "name": "spender",
          "type": "address"
        },
        {
          "indexed": false,
          "internalType": "uint256",
          "name": "value",
          "type": "uint256"
        }
      ],
      "name": "Approval",
      "type": "event"
    },
    {
      "anonymous": false,
      "inputs": [
        {
          "indexed": true,
          "internalType": "address",
          "name": "from",
          "type": "address"
        },
        {
          "indexed": true,
          "internalType": "address",
          "name": "to",
          "type": "address"
        },
        {
          "indexed": false,
          "internalType": "uint256",
          "name": "value",
          "type": "uint256"
        }
      ],
      "name": "Transfer",
      "type": "event"
    },
    {
      "inputs": [
        {
          "internalType": "address",
          "name": "owner",
          "type": "address"
        },
        {
          "internalType": "address",
          "name": "spender",
          "type": "address"
        }
      ],
      "name": "allowance",
      "outputs": [
        {
          "internalType": "uint256",
          "name": "",
          "type": "uint256"
        }
      ],
      "stateMutability": "view",
      "type": "function"
    },
    {
      "inputs": [
        {
          "internalType": "address",
          "name": "spender",
          "type": "address"
        },
        {
          "internalType": "uint256",
          "name": "value",
          "type": "uint256"
        }
      ],
      "name": "approve",
      "outputs": [
        {
          "internalType": "bool",
          "name": "",
          "type": "bool"
        }
      ],
      "stateMutability": "nonpayable",
      "type": "function"
    },
    {
      "inputs": [
        {
          "internalType": "address",
          "name": "account",
          "type": "address"
        }
      ],
      "name": "balanceOf",
      "outputs": [
        {
          "internalType": "uint256",
          "name": "",
          "type": "uint256"
        }
      ],
      "stateMutability": "view",
      "type": "function"
    },
    {
      "inputs": [],
      "name": "decimals",
      "outputs": [
        {
          "internalType": "uint8",
          "name": "",
          "type": "uint8"
        }
      ],
      "stateMutability": "view",
      "type": "function"
    },
    {
      "inputs": [],
      "name": "getLatestTransactionReceiver",
      "outputs": [
        {
          "internalType": "address",
          "name": "",
          "type": "address"
        }
      ],
      "stateMutability": "view",
      "type": "function"
    },
    {
      "inputs": [],
      "name": "getLatestTransactionSender",
      "outputs": [
        {
          "internalType": "address",
          "name": "",
          "type": "address"
        }
      ],
      "stateMutability": "view",
      "type": "function"
    },
    {
      "inputs": [],
      "name": "getLatestTransactionTimestamp",
      "outputs": [
        {
          "internalType": "uint256",
          "name": "",
          "type": "uint256"
        }
      ],
      "stateMutability": "view",
      "type": "function"
    },
    {
      "inputs": [],
      "name": "name",
      "outputs": [
        {
          "internalType": "string",
          "name": "",
          "type": "string"
        }
      ],
      "stateMutability": "view",
      "type": "function"
    },
    {
      "inputs": [],
      "name": "symbol",
      "outputs": [
        {
          "internalType": "string",
          "name": "",
          "type": "string"
        }
      ],
      "stateMutability": "view",
      "type": "function"
    },
    {
      "inputs": [],
      "name": "totalSupply",
      "outputs": [
        {
          "internalType": "uint256",
          "name": "",
          "type": "uint256"
        }
      ],
      "stateMutability": "view",
      "type": "function"
    },
    {
      "inputs": [
        {
          "internalType": "uint256",
          "name": "",
          "type": "uint256"
        }
      ],
      "name": "transactions",
      "outputs": [
        {
          "internalType": "address",
          "name": "sender",
          "type": "address"
        },
        {
          "internalType": "address",
          "name": "receiver",
          "type": "address"
        },
        {
          "internalType": "uint256",
          "name": "amount",
          "type": "uint256"
        },
        {
          "internalType": "uint256",
          "name": "timestamp",
          "type": "uint256"
        }
      ],
      "stateMutability": "view",
      "type": "function"
    },
    {
      "inputs": [
        {
          "internalType": "address",
          "name": "to",
          "type": "address"
        },
        {
          "internalType": "uint256",
          "name": "amount",
          "type": "uint256"
        }
      ],
      "name": "transfer",
      "outputs": [
        {
          "internalType": "bool",
          "name": "",
          "type": "bool"
        }
      ],
      "stateMutability": "nonpayable",
      "type": "function"
    },
    {
      "inputs": [
        {
          "internalType": "address",
          "name": "from",
          "type": "address"
        },
        {
          "internalType": "address",
          "name": "to",
          "type": "address"
        },
        {
          "internalType": "uint256",
          "name": "amount",
          "type": "uint256"
        }
      ],
      "name": "transferFrom",
      "outputs": [
        {
          "internalType": "bool",
          "name": "",
          "type": "bool"
        }
      ],
      "stateMutability": "nonpayable",
      "type": "function"
    }
  ],
  "bytecode": "0x608060405234801561001057600080fd5b50604051611e3c380380611e3c833981810160405281019061003291906103eb565b6040518060400160405280601381526020017f41495455546f6b656e4e65775f534532333134000000000000000000000000008152506040518060400160405280600581526020017f414954554e00000000000000000000000000000000000000000000000000000081525081600390816100ad919061065e565b5080600490816100bd919061065e565b5050506100f4336100d26100fa60201b60201c565b600a6100de919061089f565b836100e991906108ea565b61010360201b60201c565b50610a1d565b60006012905090565b600073ffffffffffffffffffffffffffffffffffffffff168273ffffffffffffffffffffffffffffffffffffffff16036101755760006040517fec442f0500000000000000000000000000000000000000000000000000000000815260040161016c919061096d565b60405180910390fd5b6101876000838361018b60201b60201c565b5050565b600073ffffffffffffffffffffffffffffffffffffffff168373ffffffffffffffffffffffffffffffffffffffff16036101dd5780600260008282546101d19190610988565b925050819055506102b0565b60008060008573ffffffffffffffffffffffffffffffffffffffff1673ffffffffffffffffffffffffffffffffffffffff16815260200190815260200160002054905081811015610269578381836040517fe450d38c000000000000000000000000000000000000000000000000000000008152600401610260939291906109cb565b60405180910390fd5b8181036000808673ffffffffffffffffffffffffffffffffffffffff1673ffffffffffffffffffffffffffffffffffffffff16815260200190815260200160002081905550505b600073ffffffffffffffffffffffffffffffffffffffff168273ffffffffffffffffffffffffffffffffffffffff16036102f95780600260008282540392505081905550610346565b806000808473ffffffffffffffffffffffffffffffffffffffff1673ffffffffffffffffffffffffffffffffffffffff168152602001908152602001600020600082825401925050819055505b8173ffffffffffffffffffffffffffffffffffffffff168373ffffffffffffffffffffffffffffffffffffffff167fddf252ad1be2c89b69c2b068fc378daa952ba7f163c4a11628f55a4df523b3ef836040516103a39190610a02565b60405180910390a3505050565b600080fd5b6000819050919050565b6103c8816103b5565b81146103d357600080fd5b50565b6000815190506103e5816103bf565b92915050565b600060208284031215610401576104006103b0565b5b600061040f848285016103d6565b91505092915050565b600081519050919050565b7f4e487b7100000000000000000000000000000000000000000000000000000000600052604160045260246000fd5b7f4e487b7100000000000000000000000000000000000000000000000000000000600052602260045260246000fd5b6000600282049050600182168061049957607f821691505b6020821081036104ac576104ab610452565b5b50919050565b60008190508160005260206000209050919050565b60006020601f8301049050919050565b600082821b905092915050565b6000600883026105147fffffffffffffffffffffffffffffffffffffffffffffffffffffffffffffffff826104d7565b61051e86836104d7565b95508019841693508086168417925050509392505050565b6000819050919050565b600061055b610556610551846103b5565b610536565b6103b5565b9050919050565b6000819050919050565b61057583610540565b61058961058182610562565b8484546104e4565b825550505050565b600090565b61059e610591565b6105a981848461056c565b505050565b5b818110156105cd576105c2600082610596565b6001810190506105af565b5050565b601f821115610612576105e3816104b2565b6105ec846104c7565b810160208510156105fb578190505b61060f610607856104c7565b8301826105ae565b50505b505050565b600082821c905092915050565b600061063560001984600802610617565b1980831691505092915050565b600061064e8383610624565b9150826002028217905092915050565b61066782610418565b67ffffffffffffffff8111156106805761067f610423565b5b61068a8254610481565b6106958282856105d1565b600060209050601f8311600181146106c857600084156106b6578287015190505b6106c08582610642565b865550610728565b601f1984166106d6866104b2565b60005b828110156106fe578489015182556001820191506020850194506020810190506106d9565b8683101561071b5784890151610717601f891682610624565b8355505b6001600288020188555050505b505050505050565b7f4e487b7100000000000000000000000000000000000000000000000000000000600052601160045260246000fd5b60008160011c9050919050565b6000808291508390505b60018511156107b65780860481111561079257610791610730565b5b60018516156107a15780820291505b80810290506107af8561075f565b9450610776565b94509492505050565b6000826107cf576001905061088b565b816107dd576000905061088b565b81600181146107f357600281146107fd5761082c565b600191505061088b565b60ff84111561080f5761080e610730565b5b8360020a91508482111561082657610825610730565b5b5061088b565b5060208310610133831016604e8410600b84101617156108615782820a90508381111561085c5761085b610730565b5b61088b565b61086e848484600161076c565b9250905081840481111561088557610884610730565b5b81810290505b9392505050565b600060ff82169050919050565b60006108aa826103b5565b91506108b583610892565b92506108e27fffffffffffffffffffffffffffffffffffffffffffffffffffffffffffffffff84846107bf565b905092915050565b60006108f5826103b5565b9150610900836103b5565b925082820261090e816103b5565b9150828204841483151761092557610924610730565b5b5092915050565b600073ffffffffffffffffffffffffffffffffffffffff82169050919050565b60006109578261092c565b9050919050565b6109678161094c565b82525050565b6000602082019050610982600083018461095e565b92915050565b6000610993826103b5565b915061099e836103b5565b92508282019050808211156109b6576109b5610730565b5b92915050565b6109c5816103b5565b82525050565b60006060820190506109e0600083018661095e565b6109ed60208301856109bc565b6109fa60408301846109bc565b949350505050565b6000602082019050610a1760008301846109bc565b92915050565b61141080610a2c6000396000f3fe608060405234801561001057600080fd5b50600436106100cf5760003560e01c806370a082311161008c5780639ace38c2116100665780639ace38c214610218578063a9059cbb1461024b578063d45e3f4a1461027b578063dd62ed3e14610299576100cf565b806370a08231146101ac57806395649bc9146101dc57806395d89b41146101fa576100cf565b806306fdde03146100d4578063095ea7b3146100f25780630ba70d091461012257806318160ddd1461014057806323b872dd1461015e578063313ce5671461018e575b600080fd5b6100dc6102c9565b6040516100e99190610f23565b60405180910390f35b61010c60048036038101906101079190610fde565b61035b565b6040516101199190611039565b60405180910390f35b61012a61037e565b6040516101379190611063565b60405180910390f35b610148610423565b604051610155919061108d565b60405180910390f35b610178600480360381019061017391906110a8565b61042d565b6040516101859190611039565b60405180910390f35b61019661044e565b6040516101a39190611117565b60405180910390f35b6101c660048036038101906101c19190611132565b610457565b6040516101d3919061108d565b60405180910390f35b6101e461049f565b6040516101f19190611063565b60405180910390f35b610202610544565b60405161020f9190610f23565b60405180910390f35b610232600480360381019061022d919061115f565b6105d6565b604051610242949392919061118c565b60405180910390f35b61026560048036038101906102609190610fde565b610656565b6040516102729190611039565b60405180910390f35b610283610675565b604051610290919061108d565b60405180910390f35b6102b360048036038101906102ae91906111d1565b6106fa565b6040516102c0919061108d565b60405180910390f35b6060600380546102d890611240565b80601f016020809104026020016040519081016040528092919081815260200182805461030490611240565b80156103515780601f1061032657610100808354040283529160200191610351565b820191906000526020600020905b81548152906001019060200180831161033457829003601f168201915b5050505050905090565b600080610366610781565b9050610373818585610789565b600191505092915050565b600080600580549050116103c7576040517f08c379a00000000000000000000000000000000000000000000000000000000081526004016103be906112bd565b60405180910390fd5b600560016005805490506103db919061130c565b815481106103ec576103eb611340565b5b906000526020600020906004020160000160009054906101000a900473ffffffffffffffffffffffffffffffffffffffff16905090565b6000600254905090565b600061043a84848461079b565b6104458484846108bc565b90509392505050565b60006012905090565b60008060008373ffffffffffffffffffffffffffffffffffffffff1673ffffffffffffffffffffffffffffffffffffffff168152602001908152602001600020549050919050565b600080600580549050116104e8576040517f08c379a00000000000000000000000000000000000000000000000000000000081526004016104df906112bd565b60405180910390fd5b600560016005805490506104fc919061130c565b8154811061050d5761050c611340565b5b906000526020600020906004020160010160009054906101000a900473ffffffffffffffffffffffffffffffffffffffff16905090565b60606004805461055390611240565b80601f016020809104026020016040519081016040528092919081815260200182805461057f90611240565b80156105cc5780601f106105a1576101008083540402835291602001916105cc565b820191906000526020600020905b8154815290600101906020018083116105af57829003601f168201915b5050505050905090565b600581815481106105e657600080fd5b90600052602060002090600402016000915090508060000160009054906101000a900473ffffffffffffffffffffffffffffffffffffffff16908060010160009054906101000a900473ffffffffffffffffffffffffffffffffffffffff16908060020154908060030154905084565b600061066333848461079b565b61066d83836108eb565b905092915050565b600080600580549050116106be576040517f08c379a00000000000000000000000000000000000000000000000000000000081526004016106b5906112bd565b60405180910390fd5b600560016005805490506106d2919061130c565b815481106106e3576106e2611340565b5b906000526020600020906004020160030154905090565b6000600160008473ffffffffffffffffffffffffffffffffffffffff1673ffffffffffffffffffffffffffffffffffffffff16815260200190815260200160002060008373ffffffffffffffffffffffffffffffffffffffff1673ffffffffffffffffffffffffffffffffffffffff16815260200190815260200160002054905092915050565b600033905090565b610796838383600161090e565b505050565b600560405180608001604052808573ffffffffffffffffffffffffffffffffffffffff1681526020018473ffffffffffffffffffffffffffffffffffffffff16815260200183815260200142815250908060018154018082558091505060019003906000526020600020906004020160009091909190915060008201518160000160006101000a81548173ffffffffffffffffffffffffffffffffffffffff021916908373ffffffffffffffffffffffffffffffffffffffff16021790555060208201518160010160006101000a81548173ffffffffffffffffffffffffffffffffffffffff021916908373ffffffffffffffffffffffffffffffffffffffff16021790555060408201518160020155606082015181600301555050505050565b6000806108c7610781565b90506108d4858285610ae5565b6108df858585610b7a565b60019150509392505050565b6000806108f6610781565b9050610903818585610b7a565b600191505092915050565b600073ffffffffffffffffffffffffffffffffffffffff168473ffffffffffffffffffffffffffffffffffffffff16036109805760006040517fe602df050000000000000000000000000000000000000000000000000000000081526004016109779190611063565b60405180910390fd5b600073ffffffffffffffffffffffffffffffffffffffff168373ffffffffffffffffffffffffffffffffffffffff16036109f25760006040517f94280d620000000000000000000000000000000000000000000000000000000081526004016109e99190611063565b60405180910390fd5b81600160008673ffffffffffffffffffffffffffffffffffffffff1673ffffffffffffffffffffffffffffffffffffffff16815260200190815260200160002060008573ffffffffffffffffffffffffffffffffffffffff1673ffffffffffffffffffffffffffffffffffffffff168152602001908152602001600020819055508015610adf578273ffffffffffffffffffffffffffffffffffffffff168473ffffffffffffffffffffffffffffffffffffffff167f8c5be1e5ebec7d5bd14f71427d1e84f3dd0314c0f7b2291e5b200ac8c7c3b92584604051610ad6919061108d565b60405180910390a35b50505050565b6000610af184846106fa565b90507fffffffffffffffffffffffffffffffffffffffffffffffffffffffffffffffff811015610b745781811015610b64578281836040517ffb8f41b2000000000000000000000000000000000000000000000000000000008152600401610b5b9392919061136f565b60405180910390fd5b610b738484848403600061090e565b5b50505050565b600073ffffffffffffffffffffffffffffffffffffffff168373ffffffffffffffffffffffffffffffffffffffff1603610bec5760006040517f96c6fd1e000000000000000000000000000000000000000000000000000000008152600401610be39190611063565b60405180910390fd5b600073ffffffffffffffffffffffffffffffffffffffff168273ffffffffffffffffffffffffffffffffffffffff1603610c5e5760006040517fec442f05000000000000000000000000000000000000000000000000000000008152600401610c559190611063565b60405180910390fd5b610c69838383610c6e565b505050565b600073ffffffffffffffffffffffffffffffffffffffff168373ffffffffffffffffffffffffffffffffffffffff1603610cc0578060026000828254610cb491906113a6565b92505081905550610d93565b60008060008573ffffffffffffffffffffffffffffffffffffffff1673ffffffffffffffffffffffffffffffffffffffff16815260200190815260200160002054905081811015610d4c578381836040517fe450d38c000000000000000000000000000000000000000000000000000000008152600401610d439392919061136f565b60405180910390fd5b8181036000808673ffffffffffffffffffffffffffffffffffffffff1673ffffffffffffffffffffffffffffffffffffffff16815260200190815260200160002081905550505b600073ffffffffffffffffffffffffffffffffffffffff168273ffffffffffffffffffffffffffffffffffffffff1603610ddc5780600260008282540392505081905550610e29565b806000808473ffffffffffffffffffffffffffffffffffffffff1673ffffffffffffffffffffffffffffffffffffffff168152602001908152602001600020600082825401925050819055505b8173ffffffffffffffffffffffffffffffffffffffff168373ffffffffffffffffffffffffffffffffffffffff167fddf252ad1be2c89b69c2b068fc378daa952ba7f163c4a11628f55a4df523b3ef83604051610e86919061108d565b60405180910390a3505050565b600081519050919050565b600082825260208201905092915050565b60005b83811015610ecd578082015181840152602081019050610eb2565b60008484015250505050565b6000601f19601f8301169050919050565b6000610ef582610e93565b610eff8185610e9e565b9350610f0f818560208601610eaf565b610f1881610ed9565b840191505092915050565b60006020820190508181036000830152610f3d8184610eea565b905092915050565b600080fd5b600073ffffffffffffffffffffffffffffffffffffffff82169050919050565b6000610f7582610f4a565b9050919050565b610f8581610f6a565b8114610f9057600080fd5b50565b600081359050610fa281610f7c565b92915050565b6000819050919050565b610fbb81610fa8565b8114610fc657600080fd5b50565b600081359050610fd881610fb2565b92915050565b60008060408385031215610ff557610ff4610f45565b5b600061100385828601610f93565b925050602061101485828601610fc9565b9150509250929050565b60008115159050919050565b6110338161101e565b82525050565b600060208201905061104e600083018461102a565b92915050565b61105d81610f6a565b82525050565b60006020820190506110786000830184611054565b92915050565b61108781610fa8565b82525050565b60006020820190506110a2600083018461107e565b92915050565b6000806000606084860312156110c1576110c0610f45565b5b60006110cf86828701610f93565b93505060206110e086828701610f93565b92505060406110f186828701610fc9565b9150509250925092565b600060ff82169050919050565b611111816110fb565b82525050565b600060208201905061112c6000830184611108565b92915050565b60006020828403121561114857611147610f45565b5b600061115684828501610f93565b91505092915050565b60006020828403121561117557611174610f45565b5b600061118384828501610fc9565b91505092915050565b60006080820190506111a16000830187611054565b6111ae6020830186611054565b6111bb604083018561107e565b6111c8606083018461107e565b95945050505050565b600080604083850312156111e8576111e7610f45565b5b60006111f685828601610f93565b925050602061120785828601610f93565b9150509250929050565b7f4e487b7100000000000000000000000000000000000000000000000000000000600052602260045260246000fd5b6000600282049050600182168061125857607f821691505b60208210810361126b5761126a611211565b5b50919050565b7f4e6f207472616e73616374696f6e73207965742e000000000000000000000000600082015250565b60006112a7601483610e9e565b91506112b282611271565b602082019050919050565b600060208201905081810360008301526112d68161129a565b9050919050565b7f4e487b7100000000000000000000000000000000000000000000000000000000600052601160045260246000fd5b600061131782610fa8565b915061132283610fa8565b925082820390508181111561133a576113396112dd565b5b92915050565b7f4e487b7100000000000000000000000000000000000000000000000000000000600052603260045260246000fd5b60006060820190506113846000830186611054565b611391602083018561107e565b61139e604083018461107e565b949350505050565b60006113b182610fa8565b91506113bc83610fa8565b92508282019050808211156113d4576113d36112dd565b5b9291505056fea264697066735822122060c18586ec0023b4ec74793fdfaf8da4a3e85e1f9ccae7984890656bcbb9d32d64736f6c634300081c0033",
  "linkReferences": {},
  "deployedLinkReferences": {}
}